{
  "contractName": "InHospitalData",
  "abi": [
    {
      "constant": false,
      "inputs": [],
      "name": "renounceOwnership",
      "outputs": [],
      "payable": false,
      "stateMutability": "nonpayable",
      "type": "function"
    },
    {
      "constant": true,
      "inputs": [],
      "name": "owner",
      "outputs": [
        {
          "name": "",
          "type": "address"
        }
      ],
      "payable": false,
      "stateMutability": "view",
      "type": "function"
    },
    {
      "constant": false,
      "inputs": [
        {
          "name": "_newOwner",
          "type": "address"
        }
      ],
      "name": "transferOwnership",
      "outputs": [],
      "payable": false,
      "stateMutability": "nonpayable",
      "type": "function"
    },
    {
      "inputs": [],
      "payable": false,
      "stateMutability": "nonpayable",
      "type": "constructor"
    },
    {
      "anonymous": false,
      "inputs": [
        {
          "indexed": false,
          "name": "_personid",
          "type": "string"
        },
        {
          "indexed": false,
          "name": "_timestamp",
          "type": "string"
        },
        {
          "indexed": false,
          "name": "_hospitalid",
          "type": "string"
        },
        {
          "indexed": false,
          "name": "_devid",
          "type": "string"
        }
      ],
      "name": "dataPushed",
      "type": "event"
    },
    {
      "anonymous": false,
      "inputs": [
        {
          "indexed": true,
          "name": "previousOwner",
          "type": "address"
        }
      ],
      "name": "OwnershipRenounced",
      "type": "event"
    },
    {
      "anonymous": false,
      "inputs": [
        {
          "indexed": true,
          "name": "previousOwner",
          "type": "address"
        },
        {
          "indexed": true,
          "name": "newOwner",
          "type": "address"
        }
      ],
      "name": "OwnershipTransferred",
      "type": "event"
    },
    {
      "constant": true,
      "inputs": [
        {
          "name": "_personid",
          "type": "string"
        }
      ],
      "name": "getDataByPersonId",
      "outputs": [
        {
          "name": "",
          "type": "string"
        }
      ],
      "payable": false,
      "stateMutability": "view",
      "type": "function"
    },
    {
      "constant": true,
      "inputs": [
        {
          "name": "_personid",
          "type": "string"
        },
        {
          "name": "_date",
          "type": "string"
        }
      ],
      "name": "getDataByPersonidAndDate",
      "outputs": [
        {
          "name": "",
          "type": "string"
        }
      ],
      "payable": false,
      "stateMutability": "view",
      "type": "function"
    },
    {
      "constant": false,
      "inputs": [
        {
          "name": "_key",
          "type": "string"
        },
        {
          "name": "_timestamp",
          "type": "string"
        },
        {
          "name": "_hospitalid",
          "type": "string"
        },
        {
          "name": "_devid",
          "type": "string"
        },
        {
          "name": "_personid",
          "type": "string"
        },
        {
          "name": "_personveindata",
          "type": "string"
        },
        {
          "name": "_personpicdata",
          "type": "string"
        },
        {
          "name": "_additionalinfo",
          "type": "string"
        }
      ],
      "name": "putData",
      "outputs": [],
      "payable": false,
      "stateMutability": "nonpayable",
      "type": "function"
    }
  ],
  "bytecode": "0x608060405234801561001057600080fd5b50336000806101000a81548173ffffffffffffffffffffffffffffffffffffffff021916908373ffffffffffffffffffffffffffffffffffffffff16021790555061344c806100606000396000f300608060405260043610610078576000357c0100000000000000000000000000000000000000000000000000000000900463ffffffff16806330a429471461007d578063715018a6146101a55780638da5cb5b146101bc5780639654129514610213578063d7e3724a14610466578063f2fde38b14610548575b600080fd5b34801561008957600080fd5b5061012a600480360381019080803590602001908201803590602001908080601f0160208091040260200160405190810160405280939291908181526020018383808284378201915050505050509192919290803590602001908201803590602001908080601f016020809104026020016040519081016040528093929190818152602001838380828437820191505050505050919291929050505061058b565b6040518080602001828103825283818151815260200191508051906020019080838360005b8381101561016a57808201518184015260208101905061014f565b50505050905090810190601f1680156101975780820380516001836020036101000a031916815260200191505b509250505060405180910390f35b3480156101b157600080fd5b506101ba6117a4565b005b3480156101c857600080fd5b506101d16118a6565b604051808273ffffffffffffffffffffffffffffffffffffffff1673ffffffffffffffffffffffffffffffffffffffff16815260200191505060405180910390f35b34801561021f57600080fd5b50610464600480360381019080803590602001908201803590602001908080601f0160208091040260200160405190810160405280939291908181526020018383808284378201915050505050509192919290803590602001908201803590602001908080601f0160208091040260200160405190810160405280939291908181526020018383808284378201915050505050509192919290803590602001908201803590602001908080601f0160208091040260200160405190810160405280939291908181526020018383808284378201915050505050509192919290803590602001908201803590602001908080601f0160208091040260200160405190810160405280939291908181526020018383808284378201915050505050509192919290803590602001908201803590602001908080601f0160208091040260200160405190810160405280939291908181526020018383808284378201915050505050509192919290803590602001908201803590602001908080601f0160208091040260200160405190810160405280939291908181526020018383808284378201915050505050509192919290803590602001908201803590602001908080601f0160208091040260200160405190810160405280939291908181526020018383808284378201915050505050509192919290803590602001908201803590602001908080601f01602080910402602001604051908101604052809392919081815260200183838082843782019150505050505091929192905050506118cb565b005b34801561047257600080fd5b506104cd600480360381019080803590602001908201803590602001908080601f0160208091040260200160405190810160405280939291908181526020018383808284378201915050505050509192919290505050611e85565b6040518080602001828103825283818151815260200191508051906020019080838360005b8381101561050d5780820151818401526020810190506104f2565b50505050905090810190601f16801561053a5780820380516001836020036101000a031916815260200191505b509250505060405180910390f35b34801561055457600080fd5b50610589600480360381019080803573ffffffffffffffffffffffffffffffffffffffff169060200190929190505050612fb0565b005b60608060608060608060008060606040805190810160405280600181526020017f220000000000000000000000000000000000000000000000000000000000000081525096506040805190810160405280600181526020017f3a0000000000000000000000000000000000000000000000000000000000000081525095506040805190810160405280600381526020017f223a22000000000000000000000000000000000000000000000000000000000081525094506040805190810160405280600381526020017f222c22000000000000000000000000000000000000000000000000000000000081525093506040805190810160405280600181526020017f5b00000000000000000000000000000000000000000000000000000000000000815250975060009250600091505b60018b6040518082805190602001908083835b6020831015156106f257805182526020820191506020810190506020830392506106cd565b6001836020036101000a0380198251168184511680821785525050505050509050019150509081526020016040518091039020805490508210156117395761087461073c8b613017565b61086660018e6040518082805190602001908083835b6020831015156107775780518252602082019150602081019050602083039250610752565b6001836020036101000a0380198251168184511680821785525050505050509050019150509081526020016040518091039020858154811015156107b757fe5b90600052602060002090600702016000018054600181600116156101000203166002900480601f01602080910402602001604051908101604052809291908181526020018280546001816001161561010002031660029004801561085c5780601f106108315761010080835404028352916020019161085c565b820191906000526020600020905b81548152906001019060200180831161083f57829003601f168201915b5050505050613017565b61304590919063ffffffff16565b151561087f5761172c565b6040805190810160405280600181526020017f7b0000000000000000000000000000000000000000000000000000000000000081525090506108da6108c388613017565b6108cc83613017565b61309d90919063ffffffff16565b905061093461091d6040805190810160405280600981526020017f74696d655374616d700000000000000000000000000000000000000000000000815250613017565b61092683613017565b61309d90919063ffffffff16565b905061095961094286613017565b61094b83613017565b61309d90919063ffffffff16565b9050610a9f610a8860018d6040518082805190602001908083835b6020831015156109995780518252602082019150602081019050602083039250610974565b6001836020036101000a0380198251168184511680821785525050505050509050019150509081526020016040518091039020848154811015156109d957fe5b90600052602060002090600702016000018054600181600116156101000203166002900480601f016020809104026020016040519081016040528092919081815260200182805460018160011615610100020316600290048015610a7e5780601f10610a5357610100808354040283529160200191610a7e565b820191906000526020600020905b815481529060010190602001808311610a6157829003601f168201915b5050505050613017565b610a9183613017565b61309d90919063ffffffff16565b9050610ac4610aad85613017565b610ab683613017565b61309d90919063ffffffff16565b9050610b1e610b076040805190810160405280600a81526020017f686f73706974616c496400000000000000000000000000000000000000000000815250613017565b610b1083613017565b61309d90919063ffffffff16565b9050610b43610b2c86613017565b610b3583613017565b61309d90919063ffffffff16565b9050610c89610c7260018d6040518082805190602001908083835b602083101515610b835780518252602082019150602081019050602083039250610b5e565b6001836020036101000a038019825116818451168082178552505050505050905001915050908152602001604051809103902084815481101515610bc357fe5b90600052602060002090600702016001018054600181600116156101000203166002900480601f016020809104026020016040519081016040528092919081815260200182805460018160011615610100020316600290048015610c685780601f10610c3d57610100808354040283529160200191610c68565b820191906000526020600020905b815481529060010190602001808311610c4b57829003601f168201915b5050505050613017565b610c7b83613017565b61309d90919063ffffffff16565b9050610cae610c9785613017565b610ca083613017565b61309d90919063ffffffff16565b9050610d08610cf16040805190810160405280600581526020017f6465764964000000000000000000000000000000000000000000000000000000815250613017565b610cfa83613017565b61309d90919063ffffffff16565b9050610d2d610d1686613017565b610d1f83613017565b61309d90919063ffffffff16565b9050610e73610e5c60018d6040518082805190602001908083835b602083101515610d6d5780518252602082019150602081019050602083039250610d48565b6001836020036101000a038019825116818451168082178552505050505050905001915050908152602001604051809103902084815481101515610dad57fe5b90600052602060002090600702016002018054600181600116156101000203166002900480601f016020809104026020016040519081016040528092919081815260200182805460018160011615610100020316600290048015610e525780601f10610e2757610100808354040283529160200191610e52565b820191906000526020600020905b815481529060010190602001808311610e3557829003601f168201915b5050505050613017565b610e6583613017565b61309d90919063ffffffff16565b9050610e98610e8185613017565b610e8a83613017565b61309d90919063ffffffff16565b9050610ef2610edb6040805190810160405280600881526020017f706572736f6e4964000000000000000000000000000000000000000000000000815250613017565b610ee483613017565b61309d90919063ffffffff16565b9050610f17610f0086613017565b610f0983613017565b61309d90919063ffffffff16565b905061105d61104660018d6040518082805190602001908083835b602083101515610f575780518252602082019150602081019050602083039250610f32565b6001836020036101000a038019825116818451168082178552505050505050905001915050908152602001604051809103902084815481101515610f9757fe5b90600052602060002090600702016003018054600181600116156101000203166002900480601f01602080910402602001604051908101604052809291908181526020018280546001816001161561010002031660029004801561103c5780601f106110115761010080835404028352916020019161103c565b820191906000526020600020905b81548152906001019060200180831161101f57829003601f168201915b5050505050613017565b61104f83613017565b61309d90919063ffffffff16565b905061108261106b85613017565b61107483613017565b61309d90919063ffffffff16565b90506110dc6110c56040805190810160405280600e81526020017f706572736f6e5665696e44617461000000000000000000000000000000000000815250613017565b6110ce83613017565b61309d90919063ffffffff16565b90506111016110ea86613017565b6110f383613017565b61309d90919063ffffffff16565b905061124761123060018d6040518082805190602001908083835b602083101515611141578051825260208201915060208101905060208303925061111c565b6001836020036101000a03801982511681845116808217855250505050505090500191505090815260200160405180910390208481548110151561118157fe5b90600052602060002090600702016004018054600181600116156101000203166002900480601f0160208091040260200160405190810160405280929190818152602001828054600181600116156101000203166002900480156112265780601f106111fb57610100808354040283529160200191611226565b820191906000526020600020905b81548152906001019060200180831161120957829003601f168201915b5050505050613017565b61123983613017565b61309d90919063ffffffff16565b905061126c61125585613017565b61125e83613017565b61309d90919063ffffffff16565b90506112c66112af6040805190810160405280600d81526020017f706572736f6e5069634461746100000000000000000000000000000000000000815250613017565b6112b883613017565b61309d90919063ffffffff16565b90506112eb6112d486613017565b6112dd83613017565b61309d90919063ffffffff16565b905061143161141a60018d6040518082805190602001908083835b60208310151561132b5780518252602082019150602081019050602083039250611306565b6001836020036101000a03801982511681845116808217855250505050505090500191505090815260200160405180910390208481548110151561136b57fe5b90600052602060002090600702016005018054600181600116156101000203166002900480601f0160208091040260200160405190810160405280929190818152602001828054600181600116156101000203166002900480156114105780601f106113e557610100808354040283529160200191611410565b820191906000526020600020905b8154815290600101906020018083116113f357829003601f168201915b5050505050613017565b61142383613017565b61309d90919063ffffffff16565b905061145661143f85613017565b61144883613017565b61309d90919063ffffffff16565b90506114b06114996040805190810160405280600e81526020017f6164646974696f6e616c496e666f000000000000000000000000000000000000815250613017565b6114a283613017565b61309d90919063ffffffff16565b90506114d56114be86613017565b6114c783613017565b61309d90919063ffffffff16565b905061161b61160460018d6040518082805190602001908083835b60208310151561151557805182526020820191506020810190506020830392506114f0565b6001836020036101000a03801982511681845116808217855250505050505090500191505090815260200160405180910390208481548110151561155557fe5b90600052602060002090600702016006018054600181600116156101000203166002900480601f0160208091040260200160405190810160405280929190818152602001828054600181600116156101000203166002900480156115fa5780601f106115cf576101008083540402835291602001916115fa565b820191906000526020600020905b8154815290600101906020018083116115dd57829003601f168201915b5050505050613017565b61160d83613017565b61309d90919063ffffffff16565b905061164061162988613017565b61163283613017565b61309d90919063ffffffff16565b905061169a6116836040805190810160405280600181526020017f7d00000000000000000000000000000000000000000000000000000000000000815250613017565b61168c83613017565b61309d90919063ffffffff16565b90506000831115611700576116fd6116b182613017565b6116ef6040805190810160405280600181526020017f2c00000000000000000000000000000000000000000000000000000000000000815250613017565b61309d90919063ffffffff16565b90505b61172361170c82613017565b6117158a613017565b61309d90919063ffffffff16565b97506001830192505b81806001019250506106ba565b61179161177a6040805190810160405280600181526020017f5d00000000000000000000000000000000000000000000000000000000000000815250613017565b6117838a613017565b61309d90919063ffffffff16565b9750879850505050505050505092915050565b6000809054906101000a900473ffffffffffffffffffffffffffffffffffffffff1673ffffffffffffffffffffffffffffffffffffffff163373ffffffffffffffffffffffffffffffffffffffff161415156117ff57600080fd5b6000809054906101000a900473ffffffffffffffffffffffffffffffffffffffff1673ffffffffffffffffffffffffffffffffffffffff167ff8df31144d9c2f0f6b59d69b8b98abd5459d07f2742c4df920b25aae33c6482060405160405180910390a260008060006101000a81548173ffffffffffffffffffffffffffffffffffffffff021916908373ffffffffffffffffffffffffffffffffffffffff160217905550565b6000809054906101000a900473ffffffffffffffffffffffffffffffffffffffff1681565b60008060009054906101000a900473ffffffffffffffffffffffffffffffffffffffff1673ffffffffffffffffffffffffffffffffffffffff163373ffffffffffffffffffffffffffffffffffffffff1614151561192857600080fd5b600090505b6001896040518082805190602001908083835b6020831015156119655780518252602082019150602081019050602083039250611940565b6001836020036101000a038019825116818451168082178552505050505050905001915050908152602001604051809103902080549050811015611afe57611ae76119af89613017565b611ad960018c6040518082805190602001908083835b6020831015156119ea57805182526020820191506020810190506020830392506119c5565b6001836020036101000a038019825116818451168082178552505050505050905001915050908152602001604051809103902084815481101515611a2a57fe5b90600052602060002090600702016000018054600181600116156101000203166002900480601f016020809104026020016040519081016040528092919081815260200182805460018160011615610100020316600290048015611acf5780601f10611aa457610100808354040283529160200191611acf565b820191906000526020600020905b815481529060010190602001808311611ab257829003601f168201915b5050505050613017565b61311f90919063ffffffff16565b15611af157611e7a565b808060010191505061192d565b6001896040518082805190602001908083835b602083101515611b365780518252602082019150602081019050602083039250611b11565b6001836020036101000a038019825116818451168082178552505050505050905001915050908152602001604051809103902060e0604051908101604052808a815260200189815260200188815260200187815260200186815260200185815260200184815250908060018154018082558091505090600182039060005260206000209060070201600090919290919091506000820151816000019080519060200190611be4929190613361565b506020820151816001019080519060200190611c01929190613361565b506040820151816002019080519060200190611c1e929190613361565b506060820151816003019080519060200190611c3b929190613361565b506080820151816004019080519060200190611c58929190613361565b5060a0820151816005019080519060200190611c75929190613361565b5060c0820151816006019080519060200190611c92929190613361565b505050507f4b9a74499634246b716bd7303f9930cbe533330cfb4d38b42c33a4baed9770c0858989896040518080602001806020018060200180602001858103855289818151815260200191508051906020019080838360005b83811015611d07578082015181840152602081019050611cec565b50505050905090810190601f168015611d345780820380516001836020036101000a031916815260200191505b50858103845288818151815260200191508051906020019080838360005b83811015611d6d578082015181840152602081019050611d52565b50505050905090810190601f168015611d9a5780820380516001836020036101000a031916815260200191505b50858103835287818151815260200191508051906020019080838360005b83811015611dd3578082015181840152602081019050611db8565b50505050905090810190601f168015611e005780820380516001836020036101000a031916815260200191505b50858103825286818151815260200191508051906020019080838360005b83811015611e39578082015181840152602081019050611e1e565b50505050905090810190601f168015611e665780820380516001836020036101000a031916815260200191505b509850505050505050505060405180910390a15b505050505050505050565b606080606080606080600060606040805190810160405280600181526020017f220000000000000000000000000000000000000000000000000000000000000081525095506040805190810160405280600181526020017f3a0000000000000000000000000000000000000000000000000000000000000081525094506040805190810160405280600381526020017f223a22000000000000000000000000000000000000000000000000000000000081525093506040805190810160405280600381526020017f222c22000000000000000000000000000000000000000000000000000000000081525092506040805190810160405280600181526020017f5b000000000000000000000000000000000000000000000000000000000000008152509650600091505b6001896040518082805190602001908083835b602083101515611fe75780518252602082019150602081019050602083039250611fc2565b6001836020036101000a038019825116818451168082178552505050505050905001915050908152602001604051809103902080549050821015612f47576040805190810160405280600181526020017f7b00000000000000000000000000000000000000000000000000000000000000815250905061208061206987613017565b61207283613017565b61309d90919063ffffffff16565b90506120da6120c36040805190810160405280600981526020017f74696d655374616d700000000000000000000000000000000000000000000000815250613017565b6120cc83613017565b61309d90919063ffffffff16565b90506120ff6120e885613017565b6120f183613017565b61309d90919063ffffffff16565b905061224561222e60018b6040518082805190602001908083835b60208310151561213f578051825260208201915060208101905060208303925061211a565b6001836020036101000a03801982511681845116808217855250505050505090500191505090815260200160405180910390208481548110151561217f57fe5b90600052602060002090600702016000018054600181600116156101000203166002900480601f0160208091040260200160405190810160405280929190818152602001828054600181600116156101000203166002900480156122245780601f106121f957610100808354040283529160200191612224565b820191906000526020600020905b81548152906001019060200180831161220757829003601f168201915b5050505050613017565b61223783613017565b61309d90919063ffffffff16565b905061226a61225384613017565b61225c83613017565b61309d90919063ffffffff16565b90506122c46122ad6040805190810160405280600a81526020017f686f73706974616c496400000000000000000000000000000000000000000000815250613017565b6122b683613017565b61309d90919063ffffffff16565b90506122e96122d285613017565b6122db83613017565b61309d90919063ffffffff16565b905061242f61241860018b6040518082805190602001908083835b6020831015156123295780518252602082019150602081019050602083039250612304565b6001836020036101000a03801982511681845116808217855250505050505090500191505090815260200160405180910390208481548110151561236957fe5b90600052602060002090600702016001018054600181600116156101000203166002900480601f01602080910402602001604051908101604052809291908181526020018280546001816001161561010002031660029004801561240e5780601f106123e35761010080835404028352916020019161240e565b820191906000526020600020905b8154815290600101906020018083116123f157829003601f168201915b5050505050613017565b61242183613017565b61309d90919063ffffffff16565b905061245461243d84613017565b61244683613017565b61309d90919063ffffffff16565b90506124ae6124976040805190810160405280600581526020017f6465764964000000000000000000000000000000000000000000000000000000815250613017565b6124a083613017565b61309d90919063ffffffff16565b90506124d36124bc85613017565b6124c583613017565b61309d90919063ffffffff16565b905061261961260260018b6040518082805190602001908083835b60208310151561251357805182526020820191506020810190506020830392506124ee565b6001836020036101000a03801982511681845116808217855250505050505090500191505090815260200160405180910390208481548110151561255357fe5b90600052602060002090600702016002018054600181600116156101000203166002900480601f0160208091040260200160405190810160405280929190818152602001828054600181600116156101000203166002900480156125f85780601f106125cd576101008083540402835291602001916125f8565b820191906000526020600020905b8154815290600101906020018083116125db57829003601f168201915b5050505050613017565b61260b83613017565b61309d90919063ffffffff16565b905061263e61262784613017565b61263083613017565b61309d90919063ffffffff16565b90506126986126816040805190810160405280600881526020017f706572736f6e4964000000000000000000000000000000000000000000000000815250613017565b61268a83613017565b61309d90919063ffffffff16565b90506126bd6126a685613017565b6126af83613017565b61309d90919063ffffffff16565b90506128036127ec60018b6040518082805190602001908083835b6020831015156126fd57805182526020820191506020810190506020830392506126d8565b6001836020036101000a03801982511681845116808217855250505050505090500191505090815260200160405180910390208481548110151561273d57fe5b90600052602060002090600702016003018054600181600116156101000203166002900480601f0160208091040260200160405190810160405280929190818152602001828054600181600116156101000203166002900480156127e25780601f106127b7576101008083540402835291602001916127e2565b820191906000526020600020905b8154815290600101906020018083116127c557829003601f168201915b5050505050613017565b6127f583613017565b61309d90919063ffffffff16565b905061282861281184613017565b61281a83613017565b61309d90919063ffffffff16565b905061288261286b6040805190810160405280600e81526020017f706572736f6e5665696e44617461000000000000000000000000000000000000815250613017565b61287483613017565b61309d90919063ffffffff16565b90506128a761289085613017565b61289983613017565b61309d90919063ffffffff16565b90506129ed6129d660018b6040518082805190602001908083835b6020831015156128e757805182526020820191506020810190506020830392506128c2565b6001836020036101000a03801982511681845116808217855250505050505090500191505090815260200160405180910390208481548110151561292757fe5b90600052602060002090600702016004018054600181600116156101000203166002900480601f0160208091040260200160405190810160405280929190818152602001828054600181600116156101000203166002900480156129cc5780601f106129a1576101008083540402835291602001916129cc565b820191906000526020600020905b8154815290600101906020018083116129af57829003601f168201915b5050505050613017565b6129df83613017565b61309d90919063ffffffff16565b9050612a126129fb84613017565b612a0483613017565b61309d90919063ffffffff16565b9050612a6c612a556040805190810160405280600d81526020017f706572736f6e5069634461746100000000000000000000000000000000000000815250613017565b612a5e83613017565b61309d90919063ffffffff16565b9050612a91612a7a85613017565b612a8383613017565b61309d90919063ffffffff16565b9050612bd7612bc060018b6040518082805190602001908083835b602083101515612ad15780518252602082019150602081019050602083039250612aac565b6001836020036101000a038019825116818451168082178552505050505050905001915050908152602001604051809103902084815481101515612b1157fe5b90600052602060002090600702016005018054600181600116156101000203166002900480601f016020809104026020016040519081016040528092919081815260200182805460018160011615610100020316600290048015612bb65780601f10612b8b57610100808354040283529160200191612bb6565b820191906000526020600020905b815481529060010190602001808311612b9957829003601f168201915b5050505050613017565b612bc983613017565b61309d90919063ffffffff16565b9050612bfc612be584613017565b612bee83613017565b61309d90919063ffffffff16565b9050612c56612c3f6040805190810160405280600e81526020017f6164646974696f6e616c496e666f000000000000000000000000000000000000815250613017565b612c4883613017565b61309d90919063ffffffff16565b9050612c7b612c6485613017565b612c6d83613017565b61309d90919063ffffffff16565b9050612dc1612daa60018b6040518082805190602001908083835b602083101515612cbb5780518252602082019150602081019050602083039250612c96565b6001836020036101000a038019825116818451168082178552505050505050905001915050908152602001604051809103902084815481101515612cfb57fe5b90600052602060002090600702016006018054600181600116156101000203166002900480601f016020809104026020016040519081016040528092919081815260200182805460018160011615610100020316600290048015612da05780601f10612d7557610100808354040283529160200191612da0565b820191906000526020600020905b815481529060010190602001808311612d8357829003601f168201915b5050505050613017565b612db383613017565b61309d90919063ffffffff16565b9050612de6612dcf87613017565b612dd883613017565b61309d90919063ffffffff16565b9050612e40612e296040805190810160405280600181526020017f7d00000000000000000000000000000000000000000000000000000000000000815250613017565b612e3283613017565b61309d90919063ffffffff16565b9050612e65612e4e82613017565b612e5789613017565b61309d90919063ffffffff16565b96506001808a6040518082805190602001908083835b602083101515612ea05780518252602082019150602081019050602083039250612e7b565b6001836020036101000a03801982511681845116808217855250505050505090500191505090815260200160405180910390208054905003821015612f3a57612f37612f206040805190810160405280600181526020017f2c00000000000000000000000000000000000000000000000000000000000000815250613017565b612f2989613017565b61309d90919063ffffffff16565b96505b8180600101925050611faf565b612f9f612f886040805190810160405280600181526020017f5d00000000000000000000000000000000000000000000000000000000000000815250613017565b612f9189613017565b61309d90919063ffffffff16565b965086975050505050505050919050565b6000809054906101000a900473ffffffffffffffffffffffffffffffffffffffff1673ffffffffffffffffffffffffffffffffffffffff163373ffffffffffffffffffffffffffffffffffffffff1614151561300b57600080fd5b61301481613135565b50565b61301f6133e1565b600060208301905060408051908101604052808451815260200182815250915050919050565b6000808260000151846000015110156130615760009150613096565b82602001518460200151141561307a5760019150613096565b8251602085015160208501518281208383201493505050508091505b5092915050565b606080600083600001518560000151016040519080825280601f01601f1916602001820160405280156130df5781602001602082028038833980820191505090505b5091506020820190506130fb818660200151876000015161322f565b613114856000015182018560200151866000015161322f565b819250505092915050565b60008061312c848461327a565b14905092915050565b600073ffffffffffffffffffffffffffffffffffffffff168173ffffffffffffffffffffffffffffffffffffffff161415151561317157600080fd5b8073ffffffffffffffffffffffffffffffffffffffff166000809054906101000a900473ffffffffffffffffffffffffffffffffffffffff1673ffffffffffffffffffffffffffffffffffffffff167f8be0079c531659141344cd1fd0a4f28419497f9722a3daafe3b4186f6b6457e060405160405180910390a3806000806101000a81548173ffffffffffffffffffffffffffffffffffffffff021916908373ffffffffffffffffffffffffffffffffffffffff16021790555050565b60005b6020821015156132575782518452602084019350602083019250602082039150613232565b6001826020036101000a0390508019835116818551168181178652505050505050565b60008060008060008060008060008a6000015197508a600001518a6000015110156132a757896000015197505b8a60200151965089602001519550600094505b87851015613345578651935085519250828414151561332e577fffffffffffffffffffffffffffffffffffffffffffffffffffffffffffffffff9150602088101561331257600185896020030160080260020a031991505b81831682851603905060008114151561332d57809850613353565b5b6020870196506020860195506020850194506132ba565b89600001518b600001510398505b505050505050505092915050565b828054600181600116156101000203166002900490600052602060002090601f016020900481019282601f106133a257805160ff19168380011785556133d0565b828001600101855582156133d0579182015b828111156133cf5782518255916020019190600101906133b4565b5b5090506133dd91906133fb565b5090565b604080519081016040528060008152602001600081525090565b61341d91905b80821115613419576000816000905550600101613401565b5090565b905600a165627a7a723058206de8dd4c01aeb0751629fe14bc437725ce4155e92038c7fbb148fadd31a62ffd0029",
  "source": "pragma solidity ^0.4.17;\n//pragma experimental ABIEncoderV2;\nimport \"lib/strings.sol\";\n//import \"github.com/Arachnid/solidity-stringutils/strings.sol\";\nimport \"openzeppelin-solidity/contracts/ownership/Ownable.sol\";\n\ncontract InHospitalData is Ownable {\n  using strings for *;\n  struct InHospitalInfo {\n    string timeStamp;\n    string hospitalId;\n    string devId;\n    string personId;\n    string personVeinData;\n    string personPicData;\n    string additionalInfo;\n  }\n  mapping(string => InHospitalInfo[]) data;\n\n  event dataPushed(string _personid, string _timestamp, string _hospitalid, string _devid);\n\n  constructor() public {\n  }\n\n  function getDataByPersonId(string _personid) public view returns(string) {\n    string memory res;\n    string memory doubleQuotationMark;  // \"\n    string memory colonMark;  // :\n    string memory dcolondMark;    // \":\"\n    string memory dcommaMark;     // \",\"\n    doubleQuotationMark = '\"';\n    colonMark = ':';\n    dcolondMark = '\":\"';\n    dcommaMark = '\",\"';\n\n    res = \"[\";\n\n    for (uint i = 0; i < data[_personid].length; i++) {\n      string memory itemData;\n\n      itemData = \"{\";\n      itemData = itemData.toSlice().concat(doubleQuotationMark.toSlice());\n\n      itemData = itemData.toSlice().concat(\"timeStamp\".toSlice());\n      itemData = itemData.toSlice().concat(dcolondMark.toSlice());\n      itemData = itemData.toSlice().concat(data[_personid][i].timeStamp.toSlice());\n      itemData = itemData.toSlice().concat(dcommaMark.toSlice());\n      itemData = itemData.toSlice().concat(\"hospitalId\".toSlice());\n      itemData = itemData.toSlice().concat(dcolondMark.toSlice());\n      itemData = itemData.toSlice().concat(data[_personid][i].hospitalId.toSlice());\n      itemData = itemData.toSlice().concat(dcommaMark.toSlice());\n      itemData = itemData.toSlice().concat(\"devId\".toSlice());\n      itemData = itemData.toSlice().concat(dcolondMark.toSlice());\n      itemData = itemData.toSlice().concat(data[_personid][i].devId.toSlice());\n      itemData = itemData.toSlice().concat(dcommaMark.toSlice());\n      itemData = itemData.toSlice().concat(\"personId\".toSlice());\n      itemData = itemData.toSlice().concat(dcolondMark.toSlice());\n      itemData = itemData.toSlice().concat(data[_personid][i].personId.toSlice());\n      itemData = itemData.toSlice().concat(dcommaMark.toSlice());\n      itemData = itemData.toSlice().concat(\"personVeinData\".toSlice());\n      itemData = itemData.toSlice().concat(dcolondMark.toSlice());\n      itemData = itemData.toSlice().concat(data[_personid][i].personVeinData.toSlice());\n      itemData = itemData.toSlice().concat(dcommaMark.toSlice());\n      itemData = itemData.toSlice().concat(\"personPicData\".toSlice());\n      itemData = itemData.toSlice().concat(dcolondMark.toSlice());\n      itemData = itemData.toSlice().concat(data[_personid][i].personPicData.toSlice());\n      itemData = itemData.toSlice().concat(dcommaMark.toSlice());\n      itemData = itemData.toSlice().concat(\"additionalInfo\".toSlice());\n      itemData = itemData.toSlice().concat(dcolondMark.toSlice());\n      itemData = itemData.toSlice().concat(data[_personid][i].additionalInfo.toSlice());\n\n      itemData = itemData.toSlice().concat(doubleQuotationMark.toSlice());\n      itemData = itemData.toSlice().concat(\"}\".toSlice());\n\n      res = res.toSlice().concat(itemData.toSlice());\n      if (i < data[_personid].length-1) {\n        res = res.toSlice().concat(\",\".toSlice());\n      }\n    }\n\n    res = res.toSlice().concat(\"]\".toSlice());\n    return res;\n  }\n\n  function getDataByPersonidAndDate(string _personid, string _date) public view returns(string) {\n    string memory res;\n    string memory doubleQuotationMark;  // \"\n    string memory colonMark;  // :\n    string memory dcolondMark;    // \":\"\n    string memory dcommaMark;     // \",\"\n    doubleQuotationMark = '\"';\n    colonMark = ':';\n    dcolondMark = '\":\"';\n    dcommaMark = '\",\"';\n\n    res = \"[\";\n\n    uint flag = 0;\n    for (uint i = 0; i < data[_personid].length; i++) {\n      if (!data[_personid][i].timeStamp.toSlice().startsWith(_date.toSlice())) continue;\n\n      string memory itemData;\n\n      itemData = \"{\";\n      itemData = itemData.toSlice().concat(doubleQuotationMark.toSlice());\n\n      itemData = itemData.toSlice().concat(\"timeStamp\".toSlice());\n      itemData = itemData.toSlice().concat(dcolondMark.toSlice());\n      itemData = itemData.toSlice().concat(data[_personid][i].timeStamp.toSlice());\n      itemData = itemData.toSlice().concat(dcommaMark.toSlice());\n      itemData = itemData.toSlice().concat(\"hospitalId\".toSlice());\n      itemData = itemData.toSlice().concat(dcolondMark.toSlice());\n      itemData = itemData.toSlice().concat(data[_personid][i].hospitalId.toSlice());\n      itemData = itemData.toSlice().concat(dcommaMark.toSlice());\n      itemData = itemData.toSlice().concat(\"devId\".toSlice());\n      itemData = itemData.toSlice().concat(dcolondMark.toSlice());\n      itemData = itemData.toSlice().concat(data[_personid][i].devId.toSlice());\n      itemData = itemData.toSlice().concat(dcommaMark.toSlice());\n      itemData = itemData.toSlice().concat(\"personId\".toSlice());\n      itemData = itemData.toSlice().concat(dcolondMark.toSlice());\n      itemData = itemData.toSlice().concat(data[_personid][i].personId.toSlice());\n      itemData = itemData.toSlice().concat(dcommaMark.toSlice());\n      itemData = itemData.toSlice().concat(\"personVeinData\".toSlice());\n      itemData = itemData.toSlice().concat(dcolondMark.toSlice());\n      itemData = itemData.toSlice().concat(data[_personid][i].personVeinData.toSlice());\n      itemData = itemData.toSlice().concat(dcommaMark.toSlice());\n      itemData = itemData.toSlice().concat(\"personPicData\".toSlice());\n      itemData = itemData.toSlice().concat(dcolondMark.toSlice());\n      itemData = itemData.toSlice().concat(data[_personid][i].personPicData.toSlice());\n      itemData = itemData.toSlice().concat(dcommaMark.toSlice());\n      itemData = itemData.toSlice().concat(\"additionalInfo\".toSlice());\n      itemData = itemData.toSlice().concat(dcolondMark.toSlice());\n      itemData = itemData.toSlice().concat(data[_personid][i].additionalInfo.toSlice());\n\n      itemData = itemData.toSlice().concat(doubleQuotationMark.toSlice());\n      itemData = itemData.toSlice().concat(\"}\".toSlice());\n\n      if (flag>0) {\n        itemData = \",\".toSlice().concat(itemData.toSlice());\n      }\n      res = res.toSlice().concat(itemData.toSlice());\n      flag = flag+1;\n    }\n\n    res = res.toSlice().concat(\"]\".toSlice());\n    return res;\n  }\n\n  function putData(string _key, string _timestamp, string _hospitalid, string _devid, string _personid, string _personveindata, string _personpicdata, string _additionalinfo) public onlyOwner {\n    for (uint i = 0; i < data[_key].length; i++) {\n      if (data[_key][i].timeStamp.toSlice().equals( _timestamp.toSlice())) return;\n    }\n    data[_key].push(\n      InHospitalInfo({\n        timeStamp:_timestamp,\n        hospitalId:_hospitalid,\n        devId:_devid,\n        personId:_personid,\n        personVeinData:_personveindata,\n        personPicData:_personpicdata,\n        additionalInfo:_additionalinfo})\n    );\n\n    emit dataPushed(_personid, _timestamp, _hospitalid, _devid);\n  }\n}\n",
  "sourcePath": "/root/go/src/wylzabc/ethagent/contract/inhospitaldata/contracts/InHospitalData.sol",
  "compiler": {
    "name": "solc",
    "version": "0.4.24+commit.e67f0147.Emscripten.clang"
  },
  "schemaVersion": "2.0.1",
  "updatedAt": "2018-11-06T08:23:51.633Z"
}