{
  "contractName": "Test1",
  "abi": [
    {
      "inputs": [],
      "payable": false,
      "stateMutability": "nonpayable",
      "type": "constructor"
    },
    {
      "constant": true,
      "inputs": [
        {
          "name": "_personid",
          "type": "string"
        }
      ],
      "name": "getDataByPersonId",
      "outputs": [
        {
          "name": "",
          "type": "string"
        }
      ],
      "payable": false,
      "stateMutability": "view",
      "type": "function"
    },
    {
      "constant": true,
      "inputs": [
        {
          "name": "_personid",
          "type": "string"
        },
        {
          "name": "_date",
          "type": "string"
        }
      ],
      "name": "getDataByPersonidAndDate",
      "outputs": [
        {
          "name": "",
          "type": "string"
        }
      ],
      "payable": false,
      "stateMutability": "view",
      "type": "function"
    },
    {
      "constant": false,
      "inputs": [
        {
          "name": "_key",
          "type": "string"
        },
        {
          "name": "_timestamp",
          "type": "string"
        },
        {
          "name": "_hospitalid",
          "type": "string"
        },
        {
          "name": "_devid",
          "type": "string"
        },
        {
          "name": "_personid",
          "type": "string"
        },
        {
          "name": "_personveindata",
          "type": "string"
        },
        {
          "name": "_personpicdata",
          "type": "string"
        },
        {
          "name": "_additionalinfo",
          "type": "string"
        }
      ],
      "name": "putData",
      "outputs": [],
      "payable": false,
      "stateMutability": "nonpayable",
      "type": "function"
    }
  ],
  "bytecode": "0x608060405234801561001057600080fd5b50612eb4806100206000396000f300608060405260043610610057576000357c0100000000000000000000000000000000000000000000000000000000900463ffffffff16806330a429471461005c5780639654129514610184578063d7e3724a146103d7575b600080fd5b34801561006857600080fd5b50610109600480360381019080803590602001908201803590602001908080601f0160208091040260200160405190810160405280939291908181526020018383808284378201915050505050509192919290803590602001908201803590602001908080601f01602080910402602001604051908101604052809392919081815260200183838082843782019150505050505091929192905050506104b9565b6040518080602001828103825283818151815260200191508051906020019080838360005b8381101561014957808201518184015260208101905061012e565b50505050905090810190601f1680156101765780820380516001836020036101000a031916815260200191505b509250505060405180910390f35b34801561019057600080fd5b506103d5600480360381019080803590602001908201803590602001908080601f0160208091040260200160405190810160405280939291908181526020018383808284378201915050505050509192919290803590602001908201803590602001908080601f0160208091040260200160405190810160405280939291908181526020018383808284378201915050505050509192919290803590602001908201803590602001908080601f0160208091040260200160405190810160405280939291908181526020018383808284378201915050505050509192919290803590602001908201803590602001908080601f0160208091040260200160405190810160405280939291908181526020018383808284378201915050505050509192919290803590602001908201803590602001908080601f0160208091040260200160405190810160405280939291908181526020018383808284378201915050505050509192919290803590602001908201803590602001908080601f0160208091040260200160405190810160405280939291908181526020018383808284378201915050505050509192919290803590602001908201803590602001908080601f0160208091040260200160405190810160405280939291908181526020018383808284378201915050505050509192919290803590602001908201803590602001908080601f01602080910402602001604051908101604052809392919081815260200183838082843782019150505050505091929192905050506116d2565b005b3480156103e357600080fd5b5061043e600480360381019080803590602001908201803590602001908080601f0160208091040260200160405190810160405280939291908181526020018383808284378201915050505050509192919290505050611a4d565b6040518080602001828103825283818151815260200191508051906020019080838360005b8381101561047e578082015181840152602081019050610463565b50505050905090810190601f1680156104ab5780820380516001836020036101000a031916815260200191505b509250505060405180910390f35b60608060608060608060008060606040805190810160405280600181526020017f220000000000000000000000000000000000000000000000000000000000000081525096506040805190810160405280600181526020017f3a0000000000000000000000000000000000000000000000000000000000000081525095506040805190810160405280600381526020017f223a22000000000000000000000000000000000000000000000000000000000081525094506040805190810160405280600381526020017f222c22000000000000000000000000000000000000000000000000000000000081525093506040805190810160405280600181526020017f5b00000000000000000000000000000000000000000000000000000000000000815250975060009250600091505b60008b6040518082805190602001908083835b60208310151561062057805182526020820191506020810190506020830392506105fb565b6001836020036101000a038019825116818451168082178552505050505050905001915050908152602001604051809103902080549050821015611667576107a261066a8b612b79565b61079460008e6040518082805190602001908083835b6020831015156106a55780518252602082019150602081019050602083039250610680565b6001836020036101000a0380198251168184511680821785525050505050509050019150509081526020016040518091039020858154811015156106e557fe5b90600052602060002090600702016000018054600181600116156101000203166002900480601f01602080910402602001604051908101604052809291908181526020018280546001816001161561010002031660029004801561078a5780601f1061075f5761010080835404028352916020019161078a565b820191906000526020600020905b81548152906001019060200180831161076d57829003601f168201915b5050505050612b79565b612ba790919063ffffffff16565b15156107ad5761165a565b6040805190810160405280600181526020017f7b0000000000000000000000000000000000000000000000000000000000000081525090506108086107f188612b79565b6107fa83612b79565b612bff90919063ffffffff16565b905061086261084b6040805190810160405280600981526020017f74696d655374616d700000000000000000000000000000000000000000000000815250612b79565b61085483612b79565b612bff90919063ffffffff16565b905061088761087086612b79565b61087983612b79565b612bff90919063ffffffff16565b90506109cd6109b660008d6040518082805190602001908083835b6020831015156108c757805182526020820191506020810190506020830392506108a2565b6001836020036101000a03801982511681845116808217855250505050505090500191505090815260200160405180910390208481548110151561090757fe5b90600052602060002090600702016000018054600181600116156101000203166002900480601f0160208091040260200160405190810160405280929190818152602001828054600181600116156101000203166002900480156109ac5780601f10610981576101008083540402835291602001916109ac565b820191906000526020600020905b81548152906001019060200180831161098f57829003601f168201915b5050505050612b79565b6109bf83612b79565b612bff90919063ffffffff16565b90506109f26109db85612b79565b6109e483612b79565b612bff90919063ffffffff16565b9050610a4c610a356040805190810160405280600a81526020017f686f73706974616c496400000000000000000000000000000000000000000000815250612b79565b610a3e83612b79565b612bff90919063ffffffff16565b9050610a71610a5a86612b79565b610a6383612b79565b612bff90919063ffffffff16565b9050610bb7610ba060008d6040518082805190602001908083835b602083101515610ab15780518252602082019150602081019050602083039250610a8c565b6001836020036101000a038019825116818451168082178552505050505050905001915050908152602001604051809103902084815481101515610af157fe5b90600052602060002090600702016001018054600181600116156101000203166002900480601f016020809104026020016040519081016040528092919081815260200182805460018160011615610100020316600290048015610b965780601f10610b6b57610100808354040283529160200191610b96565b820191906000526020600020905b815481529060010190602001808311610b7957829003601f168201915b5050505050612b79565b610ba983612b79565b612bff90919063ffffffff16565b9050610bdc610bc585612b79565b610bce83612b79565b612bff90919063ffffffff16565b9050610c36610c1f6040805190810160405280600581526020017f6465764964000000000000000000000000000000000000000000000000000000815250612b79565b610c2883612b79565b612bff90919063ffffffff16565b9050610c5b610c4486612b79565b610c4d83612b79565b612bff90919063ffffffff16565b9050610da1610d8a60008d6040518082805190602001908083835b602083101515610c9b5780518252602082019150602081019050602083039250610c76565b6001836020036101000a038019825116818451168082178552505050505050905001915050908152602001604051809103902084815481101515610cdb57fe5b90600052602060002090600702016002018054600181600116156101000203166002900480601f016020809104026020016040519081016040528092919081815260200182805460018160011615610100020316600290048015610d805780601f10610d5557610100808354040283529160200191610d80565b820191906000526020600020905b815481529060010190602001808311610d6357829003601f168201915b5050505050612b79565b610d9383612b79565b612bff90919063ffffffff16565b9050610dc6610daf85612b79565b610db883612b79565b612bff90919063ffffffff16565b9050610e20610e096040805190810160405280600881526020017f706572736f6e4964000000000000000000000000000000000000000000000000815250612b79565b610e1283612b79565b612bff90919063ffffffff16565b9050610e45610e2e86612b79565b610e3783612b79565b612bff90919063ffffffff16565b9050610f8b610f7460008d6040518082805190602001908083835b602083101515610e855780518252602082019150602081019050602083039250610e60565b6001836020036101000a038019825116818451168082178552505050505050905001915050908152602001604051809103902084815481101515610ec557fe5b90600052602060002090600702016003018054600181600116156101000203166002900480601f016020809104026020016040519081016040528092919081815260200182805460018160011615610100020316600290048015610f6a5780601f10610f3f57610100808354040283529160200191610f6a565b820191906000526020600020905b815481529060010190602001808311610f4d57829003601f168201915b5050505050612b79565b610f7d83612b79565b612bff90919063ffffffff16565b9050610fb0610f9985612b79565b610fa283612b79565b612bff90919063ffffffff16565b905061100a610ff36040805190810160405280600e81526020017f706572736f6e5665696e44617461000000000000000000000000000000000000815250612b79565b610ffc83612b79565b612bff90919063ffffffff16565b905061102f61101886612b79565b61102183612b79565b612bff90919063ffffffff16565b905061117561115e60008d6040518082805190602001908083835b60208310151561106f578051825260208201915060208101905060208303925061104a565b6001836020036101000a0380198251168184511680821785525050505050509050019150509081526020016040518091039020848154811015156110af57fe5b90600052602060002090600702016004018054600181600116156101000203166002900480601f0160208091040260200160405190810160405280929190818152602001828054600181600116156101000203166002900480156111545780601f1061112957610100808354040283529160200191611154565b820191906000526020600020905b81548152906001019060200180831161113757829003601f168201915b5050505050612b79565b61116783612b79565b612bff90919063ffffffff16565b905061119a61118385612b79565b61118c83612b79565b612bff90919063ffffffff16565b90506111f46111dd6040805190810160405280600d81526020017f706572736f6e5069634461746100000000000000000000000000000000000000815250612b79565b6111e683612b79565b612bff90919063ffffffff16565b905061121961120286612b79565b61120b83612b79565b612bff90919063ffffffff16565b905061135f61134860008d6040518082805190602001908083835b6020831015156112595780518252602082019150602081019050602083039250611234565b6001836020036101000a03801982511681845116808217855250505050505090500191505090815260200160405180910390208481548110151561129957fe5b90600052602060002090600702016005018054600181600116156101000203166002900480601f01602080910402602001604051908101604052809291908181526020018280546001816001161561010002031660029004801561133e5780601f106113135761010080835404028352916020019161133e565b820191906000526020600020905b81548152906001019060200180831161132157829003601f168201915b5050505050612b79565b61135183612b79565b612bff90919063ffffffff16565b905061138461136d85612b79565b61137683612b79565b612bff90919063ffffffff16565b90506113de6113c76040805190810160405280600e81526020017f6164646974696f6e616c496e666f000000000000000000000000000000000000815250612b79565b6113d083612b79565b612bff90919063ffffffff16565b90506114036113ec86612b79565b6113f583612b79565b612bff90919063ffffffff16565b905061154961153260008d6040518082805190602001908083835b602083101515611443578051825260208201915060208101905060208303925061141e565b6001836020036101000a03801982511681845116808217855250505050505090500191505090815260200160405180910390208481548110151561148357fe5b90600052602060002090600702016006018054600181600116156101000203166002900480601f0160208091040260200160405190810160405280929190818152602001828054600181600116156101000203166002900480156115285780601f106114fd57610100808354040283529160200191611528565b820191906000526020600020905b81548152906001019060200180831161150b57829003601f168201915b5050505050612b79565b61153b83612b79565b612bff90919063ffffffff16565b905061156e61155788612b79565b61156083612b79565b612bff90919063ffffffff16565b90506115c86115b16040805190810160405280600181526020017f7d00000000000000000000000000000000000000000000000000000000000000815250612b79565b6115ba83612b79565b612bff90919063ffffffff16565b9050600083111561162e5761162b6115df82612b79565b61161d6040805190810160405280600181526020017f2c00000000000000000000000000000000000000000000000000000000000000815250612b79565b612bff90919063ffffffff16565b90505b61165161163a82612b79565b6116438a612b79565b612bff90919063ffffffff16565b97506001830192505b81806001019250506105e8565b6116bf6116a86040805190810160405280600181526020017f5d00000000000000000000000000000000000000000000000000000000000000815250612b79565b6116b18a612b79565b612bff90919063ffffffff16565b9750879850505050505050505092915050565b60008090505b6000896040518082805190602001908083835b60208310151561171057805182526020820191506020810190506020830392506116eb565b6001836020036101000a0380198251168184511680821785525050505050509050019150509081526020016040518091039020805490508110156118a95761189261175a89612b79565b61188460008c6040518082805190602001908083835b6020831015156117955780518252602082019150602081019050602083039250611770565b6001836020036101000a0380198251168184511680821785525050505050509050019150509081526020016040518091039020848154811015156117d557fe5b90600052602060002090600702016000018054600181600116156101000203166002900480601f01602080910402602001604051908101604052809291908181526020018280546001816001161561010002031660029004801561187a5780601f1061184f5761010080835404028352916020019161187a565b820191906000526020600020905b81548152906001019060200180831161185d57829003601f168201915b5050505050612b79565b612c8190919063ffffffff16565b1561189c57611a42565b80806001019150506116d8565b6000896040518082805190602001908083835b6020831015156118e157805182526020820191506020810190506020830392506118bc565b6001836020036101000a038019825116818451168082178552505050505050905001915050908152602001604051809103902060e0604051908101604052808a81526020018981526020018881526020018781526020018681526020018581526020018481525090806001815401808255809150509060018203906000526020600020906007020160009091929091909150600082015181600001908051906020019061198f929190612dc9565b5060208201518160010190805190602001906119ac929190612dc9565b5060408201518160020190805190602001906119c9929190612dc9565b5060608201518160030190805190602001906119e6929190612dc9565b506080820151816004019080519060200190611a03929190612dc9565b5060a0820151816005019080519060200190611a20929190612dc9565b5060c0820151816006019080519060200190611a3d929190612dc9565b505050505b505050505050505050565b606080606080606080600060606040805190810160405280600181526020017f220000000000000000000000000000000000000000000000000000000000000081525095506040805190810160405280600181526020017f3a0000000000000000000000000000000000000000000000000000000000000081525094506040805190810160405280600381526020017f223a22000000000000000000000000000000000000000000000000000000000081525093506040805190810160405280600381526020017f222c22000000000000000000000000000000000000000000000000000000000081525092506040805190810160405280600181526020017f5b000000000000000000000000000000000000000000000000000000000000008152509650600091505b6000896040518082805190602001908083835b602083101515611baf5780518252602082019150602081019050602083039250611b8a565b6001836020036101000a038019825116818451168082178552505050505050905001915050908152602001604051809103902080549050821015612b10576040805190810160405280600181526020017f7b000000000000000000000000000000000000000000000000000000000000008152509050611c48611c3187612b79565b611c3a83612b79565b612bff90919063ffffffff16565b9050611ca2611c8b6040805190810160405280600981526020017f74696d655374616d700000000000000000000000000000000000000000000000815250612b79565b611c9483612b79565b612bff90919063ffffffff16565b9050611cc7611cb085612b79565b611cb983612b79565b612bff90919063ffffffff16565b9050611e0d611df660008b6040518082805190602001908083835b602083101515611d075780518252602082019150602081019050602083039250611ce2565b6001836020036101000a038019825116818451168082178552505050505050905001915050908152602001604051809103902084815481101515611d4757fe5b90600052602060002090600702016000018054600181600116156101000203166002900480601f016020809104026020016040519081016040528092919081815260200182805460018160011615610100020316600290048015611dec5780601f10611dc157610100808354040283529160200191611dec565b820191906000526020600020905b815481529060010190602001808311611dcf57829003601f168201915b5050505050612b79565b611dff83612b79565b612bff90919063ffffffff16565b9050611e32611e1b84612b79565b611e2483612b79565b612bff90919063ffffffff16565b9050611e8c611e756040805190810160405280600a81526020017f686f73706974616c496400000000000000000000000000000000000000000000815250612b79565b611e7e83612b79565b612bff90919063ffffffff16565b9050611eb1611e9a85612b79565b611ea383612b79565b612bff90919063ffffffff16565b9050611ff7611fe060008b6040518082805190602001908083835b602083101515611ef15780518252602082019150602081019050602083039250611ecc565b6001836020036101000a038019825116818451168082178552505050505050905001915050908152602001604051809103902084815481101515611f3157fe5b90600052602060002090600702016001018054600181600116156101000203166002900480601f016020809104026020016040519081016040528092919081815260200182805460018160011615610100020316600290048015611fd65780601f10611fab57610100808354040283529160200191611fd6565b820191906000526020600020905b815481529060010190602001808311611fb957829003601f168201915b5050505050612b79565b611fe983612b79565b612bff90919063ffffffff16565b905061201c61200584612b79565b61200e83612b79565b612bff90919063ffffffff16565b905061207661205f6040805190810160405280600581526020017f6465764964000000000000000000000000000000000000000000000000000000815250612b79565b61206883612b79565b612bff90919063ffffffff16565b905061209b61208485612b79565b61208d83612b79565b612bff90919063ffffffff16565b90506121e16121ca60008b6040518082805190602001908083835b6020831015156120db57805182526020820191506020810190506020830392506120b6565b6001836020036101000a03801982511681845116808217855250505050505090500191505090815260200160405180910390208481548110151561211b57fe5b90600052602060002090600702016002018054600181600116156101000203166002900480601f0160208091040260200160405190810160405280929190818152602001828054600181600116156101000203166002900480156121c05780601f10612195576101008083540402835291602001916121c0565b820191906000526020600020905b8154815290600101906020018083116121a357829003601f168201915b5050505050612b79565b6121d383612b79565b612bff90919063ffffffff16565b90506122066121ef84612b79565b6121f883612b79565b612bff90919063ffffffff16565b90506122606122496040805190810160405280600881526020017f706572736f6e4964000000000000000000000000000000000000000000000000815250612b79565b61225283612b79565b612bff90919063ffffffff16565b905061228561226e85612b79565b61227783612b79565b612bff90919063ffffffff16565b90506123cb6123b460008b6040518082805190602001908083835b6020831015156122c557805182526020820191506020810190506020830392506122a0565b6001836020036101000a03801982511681845116808217855250505050505090500191505090815260200160405180910390208481548110151561230557fe5b90600052602060002090600702016003018054600181600116156101000203166002900480601f0160208091040260200160405190810160405280929190818152602001828054600181600116156101000203166002900480156123aa5780601f1061237f576101008083540402835291602001916123aa565b820191906000526020600020905b81548152906001019060200180831161238d57829003601f168201915b5050505050612b79565b6123bd83612b79565b612bff90919063ffffffff16565b90506123f06123d984612b79565b6123e283612b79565b612bff90919063ffffffff16565b905061244a6124336040805190810160405280600e81526020017f706572736f6e5665696e44617461000000000000000000000000000000000000815250612b79565b61243c83612b79565b612bff90919063ffffffff16565b905061246f61245885612b79565b61246183612b79565b612bff90919063ffffffff16565b90506125b561259e60008b6040518082805190602001908083835b6020831015156124af578051825260208201915060208101905060208303925061248a565b6001836020036101000a0380198251168184511680821785525050505050509050019150509081526020016040518091039020848154811015156124ef57fe5b90600052602060002090600702016004018054600181600116156101000203166002900480601f0160208091040260200160405190810160405280929190818152602001828054600181600116156101000203166002900480156125945780601f1061256957610100808354040283529160200191612594565b820191906000526020600020905b81548152906001019060200180831161257757829003601f168201915b5050505050612b79565b6125a783612b79565b612bff90919063ffffffff16565b90506125da6125c384612b79565b6125cc83612b79565b612bff90919063ffffffff16565b905061263461261d6040805190810160405280600d81526020017f706572736f6e5069634461746100000000000000000000000000000000000000815250612b79565b61262683612b79565b612bff90919063ffffffff16565b905061265961264285612b79565b61264b83612b79565b612bff90919063ffffffff16565b905061279f61278860008b6040518082805190602001908083835b6020831015156126995780518252602082019150602081019050602083039250612674565b6001836020036101000a0380198251168184511680821785525050505050509050019150509081526020016040518091039020848154811015156126d957fe5b90600052602060002090600702016005018054600181600116156101000203166002900480601f01602080910402602001604051908101604052809291908181526020018280546001816001161561010002031660029004801561277e5780601f106127535761010080835404028352916020019161277e565b820191906000526020600020905b81548152906001019060200180831161276157829003601f168201915b5050505050612b79565b61279183612b79565b612bff90919063ffffffff16565b90506127c46127ad84612b79565b6127b683612b79565b612bff90919063ffffffff16565b905061281e6128076040805190810160405280600e81526020017f6164646974696f6e616c496e666f000000000000000000000000000000000000815250612b79565b61281083612b79565b612bff90919063ffffffff16565b905061284361282c85612b79565b61283583612b79565b612bff90919063ffffffff16565b905061298961297260008b6040518082805190602001908083835b602083101515612883578051825260208201915060208101905060208303925061285e565b6001836020036101000a0380198251168184511680821785525050505050509050019150509081526020016040518091039020848154811015156128c357fe5b90600052602060002090600702016006018054600181600116156101000203166002900480601f0160208091040260200160405190810160405280929190818152602001828054600181600116156101000203166002900480156129685780601f1061293d57610100808354040283529160200191612968565b820191906000526020600020905b81548152906001019060200180831161294b57829003601f168201915b5050505050612b79565b61297b83612b79565b612bff90919063ffffffff16565b90506129ae61299787612b79565b6129a083612b79565b612bff90919063ffffffff16565b9050612a086129f16040805190810160405280600181526020017f7d00000000000000000000000000000000000000000000000000000000000000815250612b79565b6129fa83612b79565b612bff90919063ffffffff16565b9050612a2d612a1682612b79565b612a1f89612b79565b612bff90919063ffffffff16565b9650600160008a6040518082805190602001908083835b602083101515612a695780518252602082019150602081019050602083039250612a44565b6001836020036101000a03801982511681845116808217855250505050505090500191505090815260200160405180910390208054905003821015612b0357612b00612ae96040805190810160405280600181526020017f2c00000000000000000000000000000000000000000000000000000000000000815250612b79565b612af289612b79565b612bff90919063ffffffff16565b96505b8180600101925050611b77565b612b68612b516040805190810160405280600181526020017f5d00000000000000000000000000000000000000000000000000000000000000815250612b79565b612b5a89612b79565b612bff90919063ffffffff16565b965086975050505050505050919050565b612b81612e49565b600060208301905060408051908101604052808451815260200182815250915050919050565b600080826000015184600001511015612bc35760009150612bf8565b826020015184602001511415612bdc5760019150612bf8565b8251602085015160208501518281208383201493505050508091505b5092915050565b606080600083600001518560000151016040519080825280601f01601f191660200182016040528015612c415781602001602082028038833980820191505090505b509150602082019050612c5d8186602001518760000151612c97565b612c768560000151820185602001518660000151612c97565b819250505092915050565b600080612c8e8484612ce2565b14905092915050565b60005b602082101515612cbf5782518452602084019350602083019250602082039150612c9a565b6001826020036101000a0390508019835116818551168181178652505050505050565b60008060008060008060008060008a6000015197508a600001518a600001511015612d0f57896000015197505b8a60200151965089602001519550600094505b87851015612dad5786519350855192508284141515612d96577fffffffffffffffffffffffffffffffffffffffffffffffffffffffffffffffff91506020881015612d7a57600185896020030160080260020a031991505b818316828516039050600081141515612d9557809850612dbb565b5b602087019650602086019550602085019450612d22565b89600001518b600001510398505b505050505050505092915050565b828054600181600116156101000203166002900490600052602060002090601f016020900481019282601f10612e0a57805160ff1916838001178555612e38565b82800160010185558215612e38579182015b82811115612e37578251825591602001919060010190612e1c565b5b509050612e459190612e63565b5090565b604080519081016040528060008152602001600081525090565b612e8591905b80821115612e81576000816000905550600101612e69565b5090565b905600a165627a7a72305820407e7b93a3f1820ccdf30250ac732e87f18c65f6b0f9b2311ab5bc3127217c530029",
  "source": "pragma solidity ^0.4.17;\n//pragma experimental ABIEncoderV2;\nimport \"lib/strings.sol\";\n//import \"github.com/Arachnid/solidity-stringutils/strings.sol\";\n\ncontract Test1 {\n  using strings for *;\n  struct InHospitalInfo {\n    string timeStamp;\n    string hospitalId;\n    string devId;\n    string personId;\n    string personVeinData;\n    string personPicData;\n    string additionalInfo;\n  }\n  mapping(string => InHospitalInfo[]) data;\n  constructor() public {\n  }\n  function getDataByPersonId(string _personid) public view returns(string) {\n    string memory res;\n    string memory doubleQuotationMark;  // \"\n    string memory colonMark;  // :\n    string memory dcolondMark;    // \":\"\n    string memory dcommaMark;     // \",\"\n    doubleQuotationMark = '\"';\n    colonMark = ':';\n    dcolondMark = '\":\"';\n    dcommaMark = '\",\"';\n\n    res = \"[\";\n\n    for (uint i = 0; i < data[_personid].length; i++) {\n      string memory itemData;\n\n      itemData = \"{\";\n      itemData = itemData.toSlice().concat(doubleQuotationMark.toSlice());\n\n      itemData = itemData.toSlice().concat(\"timeStamp\".toSlice());\n      itemData = itemData.toSlice().concat(dcolondMark.toSlice());\n      itemData = itemData.toSlice().concat(data[_personid][i].timeStamp.toSlice());\n      itemData = itemData.toSlice().concat(dcommaMark.toSlice());\n      itemData = itemData.toSlice().concat(\"hospitalId\".toSlice());\n      itemData = itemData.toSlice().concat(dcolondMark.toSlice());\n      itemData = itemData.toSlice().concat(data[_personid][i].hospitalId.toSlice());\n      itemData = itemData.toSlice().concat(dcommaMark.toSlice());\n      itemData = itemData.toSlice().concat(\"devId\".toSlice());\n      itemData = itemData.toSlice().concat(dcolondMark.toSlice());\n      itemData = itemData.toSlice().concat(data[_personid][i].devId.toSlice());\n      itemData = itemData.toSlice().concat(dcommaMark.toSlice());\n      itemData = itemData.toSlice().concat(\"personId\".toSlice());\n      itemData = itemData.toSlice().concat(dcolondMark.toSlice());\n      itemData = itemData.toSlice().concat(data[_personid][i].personId.toSlice());\n      itemData = itemData.toSlice().concat(dcommaMark.toSlice());\n      itemData = itemData.toSlice().concat(\"personVeinData\".toSlice());\n      itemData = itemData.toSlice().concat(dcolondMark.toSlice());\n      itemData = itemData.toSlice().concat(data[_personid][i].personVeinData.toSlice());\n      itemData = itemData.toSlice().concat(dcommaMark.toSlice());\n      itemData = itemData.toSlice().concat(\"personPicData\".toSlice());\n      itemData = itemData.toSlice().concat(dcolondMark.toSlice());\n      itemData = itemData.toSlice().concat(data[_personid][i].personPicData.toSlice());\n      itemData = itemData.toSlice().concat(dcommaMark.toSlice());\n      itemData = itemData.toSlice().concat(\"additionalInfo\".toSlice());\n      itemData = itemData.toSlice().concat(dcolondMark.toSlice());\n      itemData = itemData.toSlice().concat(data[_personid][i].additionalInfo.toSlice());\n\n      itemData = itemData.toSlice().concat(doubleQuotationMark.toSlice());\n      itemData = itemData.toSlice().concat(\"}\".toSlice());\n\n      res = res.toSlice().concat(itemData.toSlice());\n      if (i < data[_personid].length-1) {\n        res = res.toSlice().concat(\",\".toSlice());\n      }\n    }\n\n    res = res.toSlice().concat(\"]\".toSlice());\n    return res;\n  }\n\n  function getDataByPersonidAndDate(string _personid, string _date) public view returns(string) {\n    string memory res;\n    string memory doubleQuotationMark;  // \"\n    string memory colonMark;  // :\n    string memory dcolondMark;    // \":\"\n    string memory dcommaMark;     // \",\"\n    doubleQuotationMark = '\"';\n    colonMark = ':';\n    dcolondMark = '\":\"';\n    dcommaMark = '\",\"';\n\n    res = \"[\";\n\n    uint flag = 0;\n    for (uint i = 0; i < data[_personid].length; i++) {\n      if (!data[_personid][i].timeStamp.toSlice().startsWith(_date.toSlice())) continue;\n\n      string memory itemData;\n\n      itemData = \"{\";\n      itemData = itemData.toSlice().concat(doubleQuotationMark.toSlice());\n\n      itemData = itemData.toSlice().concat(\"timeStamp\".toSlice());\n      itemData = itemData.toSlice().concat(dcolondMark.toSlice());\n      itemData = itemData.toSlice().concat(data[_personid][i].timeStamp.toSlice());\n      itemData = itemData.toSlice().concat(dcommaMark.toSlice());\n      itemData = itemData.toSlice().concat(\"hospitalId\".toSlice());\n      itemData = itemData.toSlice().concat(dcolondMark.toSlice());\n      itemData = itemData.toSlice().concat(data[_personid][i].hospitalId.toSlice());\n      itemData = itemData.toSlice().concat(dcommaMark.toSlice());\n      itemData = itemData.toSlice().concat(\"devId\".toSlice());\n      itemData = itemData.toSlice().concat(dcolondMark.toSlice());\n      itemData = itemData.toSlice().concat(data[_personid][i].devId.toSlice());\n      itemData = itemData.toSlice().concat(dcommaMark.toSlice());\n      itemData = itemData.toSlice().concat(\"personId\".toSlice());\n      itemData = itemData.toSlice().concat(dcolondMark.toSlice());\n      itemData = itemData.toSlice().concat(data[_personid][i].personId.toSlice());\n      itemData = itemData.toSlice().concat(dcommaMark.toSlice());\n      itemData = itemData.toSlice().concat(\"personVeinData\".toSlice());\n      itemData = itemData.toSlice().concat(dcolondMark.toSlice());\n      itemData = itemData.toSlice().concat(data[_personid][i].personVeinData.toSlice());\n      itemData = itemData.toSlice().concat(dcommaMark.toSlice());\n      itemData = itemData.toSlice().concat(\"personPicData\".toSlice());\n      itemData = itemData.toSlice().concat(dcolondMark.toSlice());\n      itemData = itemData.toSlice().concat(data[_personid][i].personPicData.toSlice());\n      itemData = itemData.toSlice().concat(dcommaMark.toSlice());\n      itemData = itemData.toSlice().concat(\"additionalInfo\".toSlice());\n      itemData = itemData.toSlice().concat(dcolondMark.toSlice());\n      itemData = itemData.toSlice().concat(data[_personid][i].additionalInfo.toSlice());\n\n      itemData = itemData.toSlice().concat(doubleQuotationMark.toSlice());\n      itemData = itemData.toSlice().concat(\"}\".toSlice());\n\n      if (flag>0) {\n        itemData = \",\".toSlice().concat(itemData.toSlice());\n      }\n      res = res.toSlice().concat(itemData.toSlice());\n      flag = flag+1;\n    }\n\n    res = res.toSlice().concat(\"]\".toSlice());\n    return res;\n  }\n\n  function putData(string _key, string _timestamp, string _hospitalid, string _devid, string _personid, string _personveindata, string _personpicdata, string _additionalinfo) public {\n    for (uint i = 0; i < data[_key].length; i++) {\n      if (data[_key][i].timeStamp.toSlice().equals( _timestamp.toSlice())) return;\n    }\n    data[_key].push(\n      InHospitalInfo({\n        timeStamp:_timestamp,\n        hospitalId:_hospitalid,\n        devId:_devid,\n        personId:_personid,\n        personVeinData:_personveindata,\n        personPicData:_personpicdata,\n        additionalInfo:_additionalinfo})\n    );\n  }\n}\n",
  "sourcePath": "/root/contracts/inhospitaldata/contracts/InHospitalData.sol",
  "compiler": {
    "name": "solc",
    "version": "0.4.24+commit.e67f0147.Emscripten.clang"
  },
  "schemaVersion": "2.0.1",
  "updatedAt": "2018-09-06T08:52:35.812Z"
}